{
  "_format": "hh-sol-artifact-1",
  "contractName": "Player",
  "sourceName": "contracts/Player.sol",
  "abi": [
    {
      "inputs": [],
      "stateMutability": "payable",
      "type": "constructor"
    },
    {
      "anonymous": false,
      "inputs": [
        {
          "indexed": false,
          "internalType": "uint256",
          "name": "amount",
          "type": "uint256"
        },
        {
          "indexed": false,
          "internalType": "uint256",
          "name": "when",
          "type": "uint256"
        }
      ],
      "name": "Withdrawal",
      "type": "event"
    },
    {
      "inputs": [],
      "name": "getScore",
      "outputs": [
        {
          "internalType": "uint256",
          "name": "",
          "type": "uint256"
        }
      ],
      "stateMutability": "view",
      "type": "function"
    },
    {
      "inputs": [
        {
          "internalType": "uint256",
          "name": "amount",
          "type": "uint256"
        }
      ],
      "name": "incrementScore",
      "outputs": [],
      "stateMutability": "nonpayable",
      "type": "function"
    },
    {
      "inputs": [],
      "name": "owner",
      "outputs": [
        {
          "internalType": "address payable",
          "name": "",
          "type": "address"
        }
      ],
      "stateMutability": "view",
      "type": "function"
    },
    {
      "inputs": [],
      "name": "score",
      "outputs": [
        {
          "internalType": "uint256",
          "name": "",
          "type": "uint256"
        }
      ],
      "stateMutability": "view",
      "type": "function"
    },
    {
      "inputs": [],
      "name": "unlockTime",
      "outputs": [
        {
          "internalType": "uint256",
          "name": "",
          "type": "uint256"
        }
      ],
      "stateMutability": "view",
      "type": "function"
    },
    {
      "inputs": [],
      "name": "withdraw",
      "outputs": [],
      "stateMutability": "nonpayable",
      "type": "function"
    }
  ],
  "bytecode": "0x60806040523360018060a01b0319600154161760015561032a80610025608039806080f3fe60406080815260043610610107576000803560e01c63251c1aa3811461005b57633ccfd60b811461007d5763881ae5e5811461009d57638da5cb5b81146100b85763afd8206781146100e45763efedc66981146100e457610104565b3415610065578182fd5b61006e3661010d565b8154608052607f1960a0016080f35b3415610087578182fd5b6100903661010d565b610098610216565b818351f35b34156100a7578182fd5b6100986100b336610122565b61013e565b34156100c2578182fd5b6100cb3661010d565b60015483516001600160a01b0390911680825290602081f35b34156100ee578182fd5b6100f73661010d565b6002548351818152602081f35b50505b50600080fd5b60006003198201121561011f57600080fd5b50565b600060206003198301121561013657600080fd5b505060043590565b6001546001600160a01b031633146101a15760405162461bcd60e51b815260206004820152602360248201527f4f6e6c79206f776e65722063616e20657865637574652074686973206d65746860448201526237b21760e91b6064820152608481fd5b60025481198111156101c357634e487b7160e01b600052601160045260246000fd5b01600255565b8061011f5760405162461bcd60e51b81526020600482015260146024820152732cb7ba9030b932b713ba103a34329037bbb732b960611b6044820152606481fd5b6040513d6000823e3d81fd5b6000805442101561025f5760405162461bcd60e51b8152602060048201526016602482015275165bdd4818d85b89dd081dda5d1a191c985dc81e595d60521b6044820152606481fd5b6102806102746001546001600160a01b031690565b6001600160a01b031690565b61028b8133146101c9565b6040805147808252426020830152917fbf2ed60bd5b5965d685680c01195c9514e4382e28e3a5a2d2d5244bf59411b939082a150504782816102cc57506108fc5b83848586858786f16102e0576102e061020a565b5050505056fea3646970667358221220b93159ae684f70e6703a1ecb1eae5604afeca1d9088395e06527952b2205a4de6c6578706572696d656e74616cf564736f6c63430008090041",
  "linkReferences": {},
  "deployedLinkReferences": {}
}