{"contracts/Player.sol":{"Player":{"abi":[{"inputs":[],"stateMutability":"payable","type":"constructor"},{"anonymous":false,"inputs":[{"indexed":false,"internalType":"uint256","name":"amount","type":"uint256"},{"indexed":false,"internalType":"uint256","name":"when","type":"uint256"}],"name":"Withdrawal","type":"event"},{"inputs":[],"name":"getScore","outputs":[{"internalType":"uint256","name":"","type":"uint256"}],"stateMutability":"view","type":"function"},{"inputs":[{"internalType":"uint256","name":"amount","type":"uint256"}],"name":"incrementScore","outputs":[],"stateMutability":"nonpayable","type":"function"},{"inputs":[],"name":"owner","outputs":[{"internalType":"address payable","name":"","type":"address"}],"stateMutability":"view","type":"function"},{"inputs":[],"name":"score","outputs":[{"internalType":"uint256","name":"","type":"uint256"}],"stateMutability":"view","type":"function"},{"inputs":[],"name":"unlockTime","outputs":[{"internalType":"uint256","name":"","type":"uint256"}],"stateMutability":"view","type":"function"},{"inputs":[],"name":"withdraw","outputs":[],"stateMutability":"nonpayable","type":"function"}],"evm":{"bytecode":{"linkReferences":{},"object":"60806040523360018060a01b0319600154161760015561032a80610025608039806080f3fe60406080815260043610610107576000803560e01c63251c1aa3811461005b57633ccfd60b811461007d5763881ae5e5811461009d57638da5cb5b81146100b85763afd8206781146100e45763efedc66981146100e457610104565b3415610065578182fd5b61006e3661010d565b8154608052607f1960a0016080f35b3415610087578182fd5b6100903661010d565b610098610216565b818351f35b34156100a7578182fd5b6100986100b336610122565b61013e565b34156100c2578182fd5b6100cb3661010d565b60015483516001600160a01b0390911680825290602081f35b34156100ee578182fd5b6100f73661010d565b6002548351818152602081f35b50505b50600080fd5b60006003198201121561011f57600080fd5b50565b600060206003198301121561013657600080fd5b505060043590565b6001546001600160a01b031633146101a15760405162461bcd60e51b815260206004820152602360248201527f4f6e6c79206f776e65722063616e20657865637574652074686973206d65746860448201526237b21760e91b6064820152608481fd5b60025481198111156101c357634e487b7160e01b600052601160045260246000fd5b01600255565b8061011f5760405162461bcd60e51b81526020600482015260146024820152732cb7ba9030b932b713ba103a34329037bbb732b960611b6044820152606481fd5b6040513d6000823e3d81fd5b6000805442101561025f5760405162461bcd60e51b8152602060048201526016602482015275165bdd4818d85b89dd081dda5d1a191c985dc81e595d60521b6044820152606481fd5b6102806102746001546001600160a01b031690565b6001600160a01b031690565b61028b8133146101c9565b6040805147808252426020830152917fbf2ed60bd5b5965d685680c01195c9514e4382e28e3a5a2d2d5244bf59411b939082a150504782816102cc57506108fc5b83848586858786f16102e0576102e061020a565b5050505056fea3646970667358221220b93159ae684f70e6703a1ecb1eae5604afeca1d9088395e06527952b2205a4de6c6578706572696d656e74616cf564736f6c63430008090041","opcodes":"PUSH1 0x80 PUSH1 0x40 MSTORE CALLER PUSH1 0x1 DUP1 PUSH1 0xA0 SHL SUB NOT PUSH1 0x1 SLOAD AND OR PUSH1 0x1 SSTORE PUSH2 0x32A DUP1 PUSH2 0x25 PUSH1 0x80 CODECOPY DUP1 PUSH1 0x80 RETURN INVALID PUSH1 0x40 PUSH1 0x80 DUP2 MSTORE PUSH1 0x4 CALLDATASIZE LT PUSH2 0x107 JUMPI PUSH1 0x0 DUP1 CALLDATALOAD PUSH1 0xE0 SHR PUSH4 0x251C1AA3 DUP2 EQ PUSH2 0x5B JUMPI PUSH4 0x3CCFD60B DUP2 EQ PUSH2 0x7D JUMPI PUSH4 0x881AE5E5 DUP2 EQ PUSH2 0x9D JUMPI PUSH4 0x8DA5CB5B DUP2 EQ PUSH2 0xB8 JUMPI PUSH4 0xAFD82067 DUP2 EQ PUSH2 0xE4 JUMPI PUSH4 0xEFEDC669 DUP2 EQ PUSH2 0xE4 JUMPI PUSH2 0x104 JUMP JUMPDEST CALLVALUE ISZERO PUSH2 0x65 JUMPI DUP2 DUP3 REVERT JUMPDEST PUSH2 0x6E CALLDATASIZE PUSH2 0x10D JUMP JUMPDEST DUP2 SLOAD PUSH1 0x80 MSTORE PUSH1 0x7F NOT PUSH1 0xA0 ADD PUSH1 0x80 RETURN JUMPDEST CALLVALUE ISZERO PUSH2 0x87 JUMPI DUP2 DUP3 REVERT JUMPDEST PUSH2 0x90 CALLDATASIZE PUSH2 0x10D JUMP JUMPDEST PUSH2 0x98 PUSH2 0x216 JUMP JUMPDEST DUP2 DUP4 MLOAD RETURN JUMPDEST CALLVALUE ISZERO PUSH2 0xA7 JUMPI DUP2 DUP3 REVERT JUMPDEST PUSH2 0x98 PUSH2 0xB3 CALLDATASIZE PUSH2 0x122 JUMP JUMPDEST PUSH2 0x13E JUMP JUMPDEST CALLVALUE ISZERO PUSH2 0xC2 JUMPI DUP2 DUP3 REVERT JUMPDEST PUSH2 0xCB CALLDATASIZE PUSH2 0x10D JUMP JUMPDEST PUSH1 0x1 SLOAD DUP4 MLOAD PUSH1 0x1 PUSH1 0x1 PUSH1 0xA0 SHL SUB SWAP1 SWAP2 AND DUP1 DUP3 MSTORE SWAP1 PUSH1 0x20 DUP2 RETURN JUMPDEST CALLVALUE ISZERO PUSH2 0xEE JUMPI DUP2 DUP3 REVERT JUMPDEST PUSH2 0xF7 CALLDATASIZE PUSH2 0x10D JUMP JUMPDEST PUSH1 0x2 SLOAD DUP4 MLOAD DUP2 DUP2 MSTORE PUSH1 0x20 DUP2 RETURN JUMPDEST POP POP JUMPDEST POP PUSH1 0x0 DUP1 REVERT JUMPDEST PUSH1 0x0 PUSH1 0x3 NOT DUP3 ADD SLT ISZERO PUSH2 0x11F JUMPI PUSH1 0x0 DUP1 REVERT JUMPDEST POP JUMP JUMPDEST PUSH1 0x0 PUSH1 0x20 PUSH1 0x3 NOT DUP4 ADD SLT ISZERO PUSH2 0x136 JUMPI PUSH1 0x0 DUP1 REVERT JUMPDEST POP POP PUSH1 0x4 CALLDATALOAD SWAP1 JUMP JUMPDEST PUSH1 0x1 SLOAD PUSH1 0x1 PUSH1 0x1 PUSH1 0xA0 SHL SUB AND CALLER EQ PUSH2 0x1A1 JUMPI PUSH1 0x40 MLOAD PUSH3 0x461BCD PUSH1 0xE5 SHL DUP2 MSTORE PUSH1 0x20 PUSH1 0x4 DUP3 ADD MSTORE PUSH1 0x23 PUSH1 0x24 DUP3 ADD MSTORE PUSH32 0x4F6E6C79206F776E65722063616E20657865637574652074686973206D657468 PUSH1 0x44 DUP3 ADD MSTORE PUSH3 0x37B217 PUSH1 0xE9 SHL PUSH1 0x64 DUP3 ADD MSTORE PUSH1 0x84 DUP2 REVERT JUMPDEST PUSH1 0x2 SLOAD DUP2 NOT DUP2 GT ISZERO PUSH2 0x1C3 JUMPI PUSH4 0x4E487B71 PUSH1 0xE0 SHL PUSH1 0x0 MSTORE PUSH1 0x11 PUSH1 0x4 MSTORE PUSH1 0x24 PUSH1 0x0 REVERT JUMPDEST ADD PUSH1 0x2 SSTORE JUMP JUMPDEST DUP1 PUSH2 0x11F JUMPI PUSH1 0x40 MLOAD PUSH3 0x461BCD PUSH1 0xE5 SHL DUP2 MSTORE PUSH1 0x20 PUSH1 0x4 DUP3 ADD MSTORE PUSH1 0x14 PUSH1 0x24 DUP3 ADD MSTORE PUSH20 0x2CB7BA9030B932B713BA103A34329037BBB732B9 PUSH1 0x61 SHL PUSH1 0x44 DUP3 ADD MSTORE PUSH1 0x64 DUP2 REVERT JUMPDEST PUSH1 0x40 MLOAD RETURNDATASIZE PUSH1 0x0 DUP3 RETURNDATACOPY RETURNDATASIZE DUP2 REVERT JUMPDEST PUSH1 0x0 DUP1 SLOAD TIMESTAMP LT ISZERO PUSH2 0x25F JUMPI PUSH1 0x40 MLOAD PUSH3 0x461BCD PUSH1 0xE5 SHL DUP2 MSTORE PUSH1 0x20 PUSH1 0x4 DUP3 ADD MSTORE PUSH1 0x16 PUSH1 0x24 DUP3 ADD MSTORE PUSH22 0x165BDD4818D85B89DD081DDA5D1A191C985DC81E595D PUSH1 0x52 SHL PUSH1 0x44 DUP3 ADD MSTORE PUSH1 0x64 DUP2 REVERT JUMPDEST PUSH2 0x280 PUSH2 0x274 PUSH1 0x1 SLOAD PUSH1 0x1 PUSH1 0x1 PUSH1 0xA0 SHL SUB AND SWAP1 JUMP JUMPDEST PUSH1 0x1 PUSH1 0x1 PUSH1 0xA0 SHL SUB AND SWAP1 JUMP JUMPDEST PUSH2 0x28B DUP2 CALLER EQ PUSH2 0x1C9 JUMP JUMPDEST PUSH1 0x40 DUP1 MLOAD SELFBALANCE DUP1 DUP3 MSTORE TIMESTAMP PUSH1 0x20 DUP4 ADD MSTORE SWAP2 PUSH32 0xBF2ED60BD5B5965D685680C01195C9514E4382E28E3A5A2D2D5244BF59411B93 SWAP1 DUP3 LOG1 POP POP SELFBALANCE DUP3 DUP2 PUSH2 0x2CC JUMPI POP PUSH2 0x8FC JUMPDEST DUP4 DUP5 DUP6 DUP7 DUP6 DUP8 DUP7 CALL PUSH2 0x2E0 JUMPI PUSH2 0x2E0 PUSH2 0x20A JUMP JUMPDEST POP POP POP POP JUMP INVALID LOG3 PUSH5 0x6970667358 0x22 SLT KECCAK256 0xB9 BALANCE MSIZE 0xAE PUSH9 0x4F70E6703A1ECB1EAE JUMP DIV 0xAF 0xEC LOG1 0xD9 ADDMOD DUP4 SWAP6 0xE0 PUSH6 0x27952B2205A4 0xDE PUSH13 0x6578706572696D656E74616CF5 PUSH5 0x736F6C6343 STOP ADDMOD MULMOD STOP COINBASE "},"methodIdentifiers":{"getScore()":"afd82067","incrementScore(uint256)":"881ae5e5","owner()":"8da5cb5b","score()":"efedc669","unlockTime()":"251c1aa3","withdraw()":"3ccfd60b"}}}}}